{
  "contractName": "SupplyChain",
  "abi": [
    {
      "constant": false,
      "inputs": [
        {
          "name": "account",
          "type": "address"
        }
      ],
      "name": "addConsumer",
      "outputs": [],
      "payable": false,
      "stateMutability": "nonpayable",
      "type": "function"
    },
    {
      "constant": true,
      "inputs": [
        {
          "name": "account",
          "type": "address"
        }
      ],
      "name": "isRetailer",
      "outputs": [
        {
          "name": "",
          "type": "bool"
        }
      ],
      "payable": false,
      "stateMutability": "view",
      "type": "function"
    },
    {
      "constant": false,
      "inputs": [],
      "name": "renounceConsumer",
      "outputs": [],
      "payable": false,
      "stateMutability": "nonpayable",
      "type": "function"
    },
    {
      "constant": false,
      "inputs": [],
      "name": "renounceDistributor",
      "outputs": [],
      "payable": false,
      "stateMutability": "nonpayable",
      "type": "function"
    },
    {
      "constant": false,
      "inputs": [],
      "name": "renounceOwnership",
      "outputs": [],
      "payable": false,
      "stateMutability": "nonpayable",
      "type": "function"
    },
    {
      "constant": false,
      "inputs": [
        {
          "name": "account",
          "type": "address"
        }
      ],
      "name": "addDistributor",
      "outputs": [],
      "payable": false,
      "stateMutability": "nonpayable",
      "type": "function"
    },
    {
      "constant": false,
      "inputs": [
        {
          "name": "account",
          "type": "address"
        }
      ],
      "name": "addFarmer",
      "outputs": [],
      "payable": false,
      "stateMutability": "nonpayable",
      "type": "function"
    },
    {
      "constant": false,
      "inputs": [],
      "name": "renounceFarmer",
      "outputs": [],
      "payable": false,
      "stateMutability": "nonpayable",
      "type": "function"
    },
    {
      "constant": true,
      "inputs": [
        {
          "name": "account",
          "type": "address"
        }
      ],
      "name": "isConsumer",
      "outputs": [
        {
          "name": "",
          "type": "bool"
        }
      ],
      "payable": false,
      "stateMutability": "view",
      "type": "function"
    },
    {
      "constant": true,
      "inputs": [],
      "name": "owner",
      "outputs": [
        {
          "name": "",
          "type": "address"
        }
      ],
      "payable": false,
      "stateMutability": "view",
      "type": "function"
    },
    {
      "constant": false,
      "inputs": [
        {
          "name": "account",
          "type": "address"
        }
      ],
      "name": "addRetailer",
      "outputs": [],
      "payable": false,
      "stateMutability": "nonpayable",
      "type": "function"
    },
    {
      "constant": true,
      "inputs": [
        {
          "name": "account",
          "type": "address"
        }
      ],
      "name": "isDistributor",
      "outputs": [
        {
          "name": "",
          "type": "bool"
        }
      ],
      "payable": false,
      "stateMutability": "view",
      "type": "function"
    },
    {
      "constant": true,
      "inputs": [],
      "name": "isOwner",
      "outputs": [
        {
          "name": "",
          "type": "bool"
        }
      ],
      "payable": false,
      "stateMutability": "view",
      "type": "function"
    },
    {
      "constant": true,
      "inputs": [
        {
          "name": "account",
          "type": "address"
        }
      ],
      "name": "isFarmer",
      "outputs": [
        {
          "name": "",
          "type": "bool"
        }
      ],
      "payable": false,
      "stateMutability": "view",
      "type": "function"
    },
    {
      "constant": false,
      "inputs": [],
      "name": "renounceRetailer",
      "outputs": [],
      "payable": false,
      "stateMutability": "nonpayable",
      "type": "function"
    },
    {
      "constant": false,
      "inputs": [
        {
          "name": "newOwner",
          "type": "address"
        }
      ],
      "name": "transferOwnership",
      "outputs": [],
      "payable": false,
      "stateMutability": "nonpayable",
      "type": "function"
    },
    {
      "inputs": [],
      "payable": true,
      "stateMutability": "payable",
      "type": "constructor"
    },
    {
      "anonymous": false,
      "inputs": [
        {
          "indexed": false,
          "name": "upc",
          "type": "uint256"
        }
      ],
      "name": "Harvested",
      "type": "event"
    },
    {
      "anonymous": false,
      "inputs": [
        {
          "indexed": false,
          "name": "upc",
          "type": "uint256"
        }
      ],
      "name": "Processed",
      "type": "event"
    },
    {
      "anonymous": false,
      "inputs": [
        {
          "indexed": false,
          "name": "upc",
          "type": "uint256"
        }
      ],
      "name": "Packed",
      "type": "event"
    },
    {
      "anonymous": false,
      "inputs": [
        {
          "indexed": false,
          "name": "upc",
          "type": "uint256"
        }
      ],
      "name": "ForSale",
      "type": "event"
    },
    {
      "anonymous": false,
      "inputs": [
        {
          "indexed": false,
          "name": "upc",
          "type": "uint256"
        }
      ],
      "name": "Sold",
      "type": "event"
    },
    {
      "anonymous": false,
      "inputs": [
        {
          "indexed": false,
          "name": "upc",
          "type": "uint256"
        }
      ],
      "name": "Shipped",
      "type": "event"
    },
    {
      "anonymous": false,
      "inputs": [
        {
          "indexed": false,
          "name": "upc",
          "type": "uint256"
        }
      ],
      "name": "Received",
      "type": "event"
    },
    {
      "anonymous": false,
      "inputs": [
        {
          "indexed": false,
          "name": "upc",
          "type": "uint256"
        }
      ],
      "name": "Purchased",
      "type": "event"
    },
    {
      "anonymous": false,
      "inputs": [
        {
          "indexed": true,
          "name": "account",
          "type": "address"
        }
      ],
      "name": "ConsumerAdded",
      "type": "event"
    },
    {
      "anonymous": false,
      "inputs": [
        {
          "indexed": true,
          "name": "account",
          "type": "address"
        }
      ],
      "name": "ConsumerRemoved",
      "type": "event"
    },
    {
      "anonymous": false,
      "inputs": [
        {
          "indexed": true,
          "name": "account",
          "type": "address"
        }
      ],
      "name": "RetailerAdded",
      "type": "event"
    },
    {
      "anonymous": false,
      "inputs": [
        {
          "indexed": true,
          "name": "account",
          "type": "address"
        }
      ],
      "name": "RetailerRemoved",
      "type": "event"
    },
    {
      "anonymous": false,
      "inputs": [
        {
          "indexed": true,
          "name": "account",
          "type": "address"
        }
      ],
      "name": "DistributorAdded",
      "type": "event"
    },
    {
      "anonymous": false,
      "inputs": [
        {
          "indexed": true,
          "name": "account",
          "type": "address"
        }
      ],
      "name": "DistributorRemoved",
      "type": "event"
    },
    {
      "anonymous": false,
      "inputs": [
        {
          "indexed": true,
          "name": "account",
          "type": "address"
        }
      ],
      "name": "FarmerAdded",
      "type": "event"
    },
    {
      "anonymous": false,
      "inputs": [
        {
          "indexed": true,
          "name": "account",
          "type": "address"
        }
      ],
      "name": "FarmerRemoved",
      "type": "event"
    },
    {
      "anonymous": false,
      "inputs": [
        {
          "indexed": true,
          "name": "oldOwner",
          "type": "address"
        },
        {
          "indexed": true,
          "name": "newOwner",
          "type": "address"
        }
      ],
      "name": "TransferOwnership",
      "type": "event"
    },
    {
      "constant": false,
      "inputs": [],
      "name": "kill",
      "outputs": [],
      "payable": false,
      "stateMutability": "nonpayable",
      "type": "function"
    },
    {
      "constant": false,
      "inputs": [
        {
          "name": "_upc",
          "type": "uint256"
        },
        {
          "name": "_originFarmerID",
          "type": "address"
        },
        {
          "name": "_originFarmName",
          "type": "string"
        },
        {
          "name": "_originFarmInformation",
          "type": "string"
        },
        {
          "name": "_originFarmLatitude",
          "type": "string"
        },
        {
          "name": "_originFarmLongitude",
          "type": "string"
        },
        {
          "name": "_productNotes",
          "type": "string"
        }
      ],
      "name": "harvestItem",
      "outputs": [],
      "payable": false,
      "stateMutability": "nonpayable",
      "type": "function"
    },
    {
      "constant": false,
      "inputs": [
        {
          "name": "_upc",
          "type": "uint256"
        }
      ],
      "name": "processItem",
      "outputs": [],
      "payable": false,
      "stateMutability": "nonpayable",
      "type": "function"
    },
    {
      "constant": false,
      "inputs": [
        {
          "name": "_upc",
          "type": "uint256"
        }
      ],
      "name": "packItem",
      "outputs": [],
      "payable": false,
      "stateMutability": "nonpayable",
      "type": "function"
    },
    {
      "constant": false,
      "inputs": [
        {
          "name": "_upc",
          "type": "uint256"
        },
        {
          "name": "_price",
          "type": "uint256"
        }
      ],
      "name": "sellItem",
      "outputs": [],
      "payable": false,
      "stateMutability": "nonpayable",
      "type": "function"
    },
    {
      "constant": false,
      "inputs": [
        {
          "name": "_upc",
          "type": "uint256"
        }
      ],
      "name": "buyItem",
      "outputs": [],
      "payable": true,
      "stateMutability": "payable",
      "type": "function"
    },
    {
      "constant": false,
      "inputs": [
        {
          "name": "_upc",
          "type": "uint256"
        }
      ],
      "name": "shipItem",
      "outputs": [],
      "payable": false,
      "stateMutability": "nonpayable",
      "type": "function"
    },
    {
      "constant": false,
      "inputs": [
        {
          "name": "_upc",
          "type": "uint256"
        }
      ],
      "name": "receiveItem",
      "outputs": [],
      "payable": false,
      "stateMutability": "nonpayable",
      "type": "function"
    },
    {
      "constant": false,
      "inputs": [
        {
          "name": "_upc",
          "type": "uint256"
        }
      ],
      "name": "purchaseItem",
      "outputs": [],
      "payable": false,
      "stateMutability": "nonpayable",
      "type": "function"
    },
    {
      "constant": true,
      "inputs": [
        {
          "name": "_upc",
          "type": "uint256"
        }
      ],
      "name": "fetchItemBufferOne",
      "outputs": [
        {
          "name": "itemSKU",
          "type": "uint256"
        },
        {
          "name": "itemUPC",
          "type": "uint256"
        },
        {
          "name": "ownerID",
          "type": "address"
        },
        {
          "name": "originFarmerID",
          "type": "address"
        },
        {
          "name": "originFarmName",
          "type": "string"
        },
        {
          "name": "originFarmInformation",
          "type": "string"
        },
        {
          "name": "originFarmLatitude",
          "type": "string"
        },
        {
          "name": "originFarmLongitude",
          "type": "string"
        }
      ],
      "payable": false,
      "stateMutability": "view",
      "type": "function"
    },
    {
      "constant": true,
      "inputs": [
        {
          "name": "_upc",
          "type": "uint256"
        }
      ],
      "name": "fetchItemBufferTwo",
      "outputs": [
        {
          "name": "itemSKU",
          "type": "uint256"
        },
        {
          "name": "itemUPC",
          "type": "uint256"
        },
        {
          "name": "productID",
          "type": "uint256"
        },
        {
          "name": "productNotes",
          "type": "string"
        },
        {
          "name": "productPrice",
          "type": "uint256"
        },
        {
          "name": "itemState",
          "type": "uint256"
        },
        {
          "name": "distributorID",
          "type": "address"
        },
        {
          "name": "retailerID",
          "type": "address"
        },
        {
          "name": "consumerID",
          "type": "address"
        }
      ],
      "payable": false,
      "stateMutability": "view",
      "type": "function"
    },
    {
      "constant": true,
      "inputs": [
        {
          "name": "_upc",
          "type": "uint256"
        }
      ],
      "name": "fetchProductID",
      "outputs": [
        {
          "name": "",
          "type": "uint256"
        }
      ],
      "payable": false,
      "stateMutability": "view",
      "type": "function"
    },
    {
      "constant": true,
      "inputs": [
        {
          "name": "_upc",
          "type": "uint256"
        }
      ],
      "name": "fetchFarm",
      "outputs": [
        {
          "name": "",
          "type": "string"
        }
      ],
      "payable": false,
      "stateMutability": "view",
      "type": "function"
    },
    {
      "constant": true,
      "inputs": [
        {
          "name": "_upc",
          "type": "uint256"
        }
      ],
      "name": "fetchFarmInfo",
      "outputs": [
        {
          "name": "",
          "type": "string"
        }
      ],
      "payable": false,
      "stateMutability": "view",
      "type": "function"
    },
    {
      "constant": true,
      "inputs": [
        {
          "name": "_upc",
          "type": "uint256"
        }
      ],
      "name": "fetchFarmCoordinates",
      "outputs": [
        {
          "name": "",
          "type": "string"
        },
        {
          "name": "",
          "type": "string"
        }
      ],
      "payable": false,
      "stateMutability": "view",
      "type": "function"
    },
    {
      "constant": true,
      "inputs": [
        {
          "name": "_upc",
          "type": "uint256"
        }
      ],
      "name": "fetchProductNotes",
      "outputs": [
        {
          "name": "",
          "type": "string"
        }
      ],
      "payable": false,
      "stateMutability": "view",
      "type": "function"
    }
  ],
  "bytecode": "0x6080604052336000806101000a81548173ffffffffffffffffffffffffffffffffffffffff021916908373ffffffffffffffffffffffffffffffffffffffff1602179055506000809054906101000a900473ffffffffffffffffffffffffffffffffffffffff1673ffffffffffffffffffffffffffffffffffffffff16600073ffffffffffffffffffffffffffffffffffffffff167f5c486528ec3e3f0ea91181cff8116f02bfa350e03b8b6f12e00765adbb5af85c60405160405180910390a3620000da336200013e640100000000026401000000009004565b620000f433620001a8640100000000026401000000009004565b6200010e3362000212640100000000026401000000009004565b62000128336200027c640100000000026401000000009004565b600160068190555060016005819055506200043e565b62000162816001620002e664010000000002620032a5179091906401000000009004565b8073ffffffffffffffffffffffffffffffffffffffff167f2e0ded4123377a3c2bc9a26f1717655a129e2f20752924d42e730ec89c83dbd060405160405180910390a250565b620001cc816002620002e664010000000002620032a5179091906401000000009004565b8073ffffffffffffffffffffffffffffffffffffffff167fddbf200aa634dc3fb81cfd68583dd1040d1c751d335e1d86b631bde3e977fea860405160405180910390a250565b62000236816003620002e664010000000002620032a5179091906401000000009004565b8073ffffffffffffffffffffffffffffffffffffffff167f71ae26cad02663e3d92efd6ec56031a80d74a20c0ab4183faa8bf262261c9baa60405160405180910390a250565b620002a0816004620002e664010000000002620032a5179091906401000000009004565b8073ffffffffffffffffffffffffffffffffffffffff167f28b26e7a3d20aedbc5f8f2ebf7da671c0491723a2b78f47a097b0e46dee0714260405160405180910390a250565b600073ffffffffffffffffffffffffffffffffffffffff168173ffffffffffffffffffffffffffffffffffffffff16141515156200032357600080fd5b6200033e8282620003a9640100000000026401000000009004565b1515156200034b57600080fd5b60018260000160008373ffffffffffffffffffffffffffffffffffffffff1673ffffffffffffffffffffffffffffffffffffffff16815260200190815260200160002060006101000a81548160ff0219169083151502179055505050565b60008073ffffffffffffffffffffffffffffffffffffffff168273ffffffffffffffffffffffffffffffffffffffff1614151515620003e757600080fd5b8260000160008373ffffffffffffffffffffffffffffffffffffffff1673ffffffffffffffffffffffffffffffffffffffff16815260200190815260200160002060009054906101000a900460ff16905092915050565b6134d5806200044e6000396000f300608060405260043610610196576000357c0100000000000000000000000000000000000000000000000000000000900463ffffffff1680630274cfbf1461019b578063112940f9146102415780632d9235611461028457806341c0e1b5146102bb57806349dae766146102d25780634fedee97146102ff5780635da09b881461034057806361e6982d1461039b578063644241db146103b257806366225ff9146103c95780636f46bcc31461052b578063715018a6146105d15780637250e224146105e857806377c459131461062b5780637e03c6ef1461088957806380c3f96d1461099b57806380fc0ce4146109de578063834ff739146109f55780638da5cb5b14610a505780638ec4f50514610aa75780638f0c86fa14610aea5780638f32d59b14610b45578063a26be99914610b74578063b942906914610ba1578063bdd8a6a814610bfc578063d38ea5bf14610da7578063d9337bb714610dd4578063db0e6a2f14610e7a578063e7fb74c714610e91578063f2fde38b14610eb1578063f30fc48014610ef4578063f61c899a14610f21575b600080fd5b3480156101a757600080fd5b506101c660048036038101908080359060200190929190505050610f4e565b6040518080602001828103825283818151815260200191508051906020019080838360005b838110156102065780820151818401526020810190506101eb565b50505050905090810190601f1680156102335780820380516001836020036101000a031916815260200191505b509250505060405180910390f35b34801561024d57600080fd5b50610282600480360381019080803573ffffffffffffffffffffffffffffffffffffffff169060200190929190505050611006565b005b34801561029057600080fd5b506102b960048036038101908080359060200190929190803590602001909291905050506110b5565b005b3480156102c757600080fd5b506102d06111ff565b005b3480156102de57600080fd5b506102fd6004803603810190808035906020019092919050505061125c565b005b34801561030b57600080fd5b5061032a6004803603810190808035906020019092919050505061138a565b6040518082815260200191505060405180910390f35b34801561034c57600080fd5b50610381600480360381019080803573ffffffffffffffffffffffffffffffffffffffff1690602001909291905050506113aa565b604051808215151515815260200191505060405180910390f35b3480156103a757600080fd5b506103b06113c7565b005b3480156103be57600080fd5b506103c76113d2565b005b3480156103d557600080fd5b506103f4600480360381019080803590602001909291905050506113dd565b604051808a8152602001898152602001888152602001806020018781526020018681526020018573ffffffffffffffffffffffffffffffffffffffff1673ffffffffffffffffffffffffffffffffffffffff1681526020018473ffffffffffffffffffffffffffffffffffffffff1673ffffffffffffffffffffffffffffffffffffffff1681526020018373ffffffffffffffffffffffffffffffffffffffff1673ffffffffffffffffffffffffffffffffffffffff168152602001828103825288818151815260200191508051906020019080838360005b838110156104e85780820151818401526020810190506104cd565b50505050905090810190601f1680156105155780820380516001836020036101000a031916815260200191505b509a505050505050505050505060405180910390f35b34801561053757600080fd5b50610556600480360381019080803590602001909291905050506115ef565b6040518080602001828103825283818151815260200191508051906020019080838360005b8381101561059657808201518184015260208101905061057b565b50505050905090810190601f1680156105c35780820380516001836020036101000a031916815260200191505b509250505060405180910390f35b3480156105dd57600080fd5b506105e66116a7565b005b3480156105f457600080fd5b50610629600480360381019080803573ffffffffffffffffffffffffffffffffffffffff169060200190929190505050611779565b005b34801561063757600080fd5b5061065660048036038101908080359060200190929190505050611828565b604051808981526020018881526020018773ffffffffffffffffffffffffffffffffffffffff1673ffffffffffffffffffffffffffffffffffffffff1681526020018673ffffffffffffffffffffffffffffffffffffffff1673ffffffffffffffffffffffffffffffffffffffff16815260200180602001806020018060200180602001858103855289818151815260200191508051906020019080838360005b838110156107125780820151818401526020810190506106f7565b50505050905090810190601f16801561073f5780820380516001836020036101000a031916815260200191505b50858103845288818151815260200191508051906020019080838360005b8381101561077857808201518184015260208101905061075d565b50505050905090810190601f1680156107a55780820380516001836020036101000a031916815260200191505b50858103835287818151815260200191508051906020019080838360005b838110156107de5780820151818401526020810190506107c3565b50505050905090810190601f16801561080b5780820380516001836020036101000a031916815260200191505b50858103825286818151815260200191508051906020019080838360005b83811015610844578082015181840152602081019050610829565b50505050905090810190601f1680156108715780820380516001836020036101000a031916815260200191505b509c5050505050505050505050505060405180910390f35b34801561089557600080fd5b506108b460048036038101908080359060200190929190505050611ba9565b604051808060200180602001838103835285818151815260200191508051906020019080838360005b838110156108f85780820151818401526020810190506108dd565b50505050905090810190601f1680156109255780820380516001836020036101000a031916815260200191505b50838103825284818151815260200191508051906020019080838360005b8381101561095e578082015181840152602081019050610943565b50505050905090810190601f16801561098b5780820380516001836020036101000a031916815260200191505b5094505050505060405180910390f35b3480156109a757600080fd5b506109dc600480360381019080803573ffffffffffffffffffffffffffffffffffffffff169060200190929190505050611d19565b005b3480156109ea57600080fd5b506109f3611dc8565b005b348015610a0157600080fd5b50610a36600480360381019080803573ffffffffffffffffffffffffffffffffffffffff169060200190929190505050611dd3565b604051808215151515815260200191505060405180910390f35b348015610a5c57600080fd5b50610a65611df0565b604051808273ffffffffffffffffffffffffffffffffffffffff1673ffffffffffffffffffffffffffffffffffffffff16815260200191505060405180910390f35b348015610ab357600080fd5b50610ae8600480360381019080803573ffffffffffffffffffffffffffffffffffffffff169060200190929190505050611e19565b005b348015610af657600080fd5b50610b2b600480360381019080803573ffffffffffffffffffffffffffffffffffffffff169060200190929190505050611ec8565b604051808215151515815260200191505060405180910390f35b348015610b5157600080fd5b50610b5a611ee5565b604051808215151515815260200191505060405180910390f35b348015610b8057600080fd5b50610b9f60048036038101908080359060200190929190505050611f3c565b005b348015610bad57600080fd5b50610be2600480360381019080803573ffffffffffffffffffffffffffffffffffffffff169060200190929190505050612145565b604051808215151515815260200191505060405180910390f35b348015610c0857600080fd5b50610da560048036038101908080359060200190929190803573ffffffffffffffffffffffffffffffffffffffff169060200190929190803590602001908201803590602001908080601f0160208091040260200160405190810160405280939291908181526020018383808284378201915050505050509192919290803590602001908201803590602001908080601f0160208091040260200160405190810160405280939291908181526020018383808284378201915050505050509192919290803590602001908201803590602001908080601f0160208091040260200160405190810160405280939291908181526020018383808284378201915050505050509192919290803590602001908201803590602001908080601f0160208091040260200160405190810160405280939291908181526020018383808284378201915050505050509192919290803590602001908201803590602001908080601f0160208091040260200160405190810160405280939291908181526020018383808284378201915050505050509192919290505050612162565b005b348015610db357600080fd5b50610dd26004803603810190808035906020019092919050505061259c565b005b348015610de057600080fd5b50610dff600480360381019080803590602001909291905050506127a4565b6040518080602001828103825283818151815260200191508051906020019080838360005b83811015610e3f578082015181840152602081019050610e24565b50505050905090810190601f168015610e6c5780820380516001836020036101000a031916815260200191505b509250505060405180910390f35b348015610e8657600080fd5b50610e8f61285c565b005b610eaf60048036038101908080359060200190929190505050612867565b005b348015610ebd57600080fd5b50610ef2600480360381019080803573ffffffffffffffffffffffffffffffffffffffff169060200190929190505050612bcc565b005b348015610f0057600080fd5b50610f1f60048036038101908080359060200190929190505050612beb565b005b348015610f2d57600080fd5b50610f4c60048036038101908080359060200190929190505050612d19565b005b6060600760008381526020019081526020016000206004018054600181600116156101000203166002900480601f016020809104026020016040519081016040528092919081815260200182805460018160011615610100020316600290048015610ffa5780601f10610fcf57610100808354040283529160200191610ffa565b820191906000526020600020905b815481529060010190602001808311610fdd57829003601f168201915b50505050509050919050565b61100f33611dd3565b15156110a9576040517f08c379a00000000000000000000000000000000000000000000000000000000081526004018080602001828103825260258152602001807f4f6e6c7920636f6e73756d6572732063616e2063616c6c20746869732066756e81526020017f6374696f6e00000000000000000000000000000000000000000000000000000081525060400191505060405180910390fd5b6110b281612e47565b50565b81600260078111156110c357fe5b60076000838152602001908152602001600020600b0160009054906101000a900460ff1660078111156110f257fe5b1415156110fe57600080fd5b6007600084815260200190815260200160002060030160009054906101000a900473ffffffffffffffffffffffffffffffffffffffff168073ffffffffffffffffffffffffffffffffffffffff163373ffffffffffffffffffffffffffffffffffffffff1614151561116f57600080fd5b600360076000868152602001908152602001600020600b0160006101000a81548160ff021916908360078111156111a257fe5b02179055508260076000868152602001908152602001600020600a01819055507fa96ae0fc3224ebd79eebfe54bd130cc9cb94416cddd1f2386115e00b72532468846040518082815260200191505060405180910390a150505050565b611207611df0565b73ffffffffffffffffffffffffffffffffffffffff163373ffffffffffffffffffffffffffffffffffffffff16141561125a57611242611df0565b73ffffffffffffffffffffffffffffffffffffffff16ff5b565b806000600781111561126a57fe5b60076000838152602001908152602001600020600b0160009054906101000a900460ff16600781111561129957fe5b1415156112a557600080fd5b6007600083815260200190815260200160002060030160009054906101000a900473ffffffffffffffffffffffffffffffffffffffff168073ffffffffffffffffffffffffffffffffffffffff163373ffffffffffffffffffffffffffffffffffffffff1614151561131657600080fd5b600160076000858152602001908152602001600020600b0160006101000a81548160ff0219169083600781111561134957fe5b02179055507f5afe3b1bf87069693c075da5c22a98d63d1aef98a30dbbe538d0781a98b77ee5836040518082815260200191505060405180910390a1505050565b600060076000838152602001908152602001600020600801549050919050565b60006113c0826003612ea190919063ffffffff16565b9050919050565b6113d033612f35565b565b6113db33612f8f565b565b600080600060606000806000806000600760008b8152602001908152602001600020600001549850899750600760008b8152602001908152602001600020600801549650600760008b81526020019081526020016000206009018054600181600116156101000203166002900480601f0160208091040260200160405190810160405280929190818152602001828054600181600116156101000203166002900480156114cb5780601f106114a0576101008083540402835291602001916114cb565b820191906000526020600020905b8154815290600101906020018083116114ae57829003601f168201915b50505050509550600760008b8152602001908152602001600020600a01549450600760008b8152602001908152602001600020600b0160009054906101000a900460ff16600781111561151a57fe5b9350600760008b8152602001908152602001600020600b0160019054906101000a900473ffffffffffffffffffffffffffffffffffffffff169250600760008b8152602001908152602001600020600c0160009054906101000a900473ffffffffffffffffffffffffffffffffffffffff169150600760008b8152602001908152602001600020600d0160009054906101000a900473ffffffffffffffffffffffffffffffffffffffff1690508888888888888888889850985098509850985098509850985098509193959799909294969850565b6060600760008381526020019081526020016000206005018054600181600116156101000203166002900480601f01602080910402602001604051908101604052809291908181526020018280546001816001161561010002031660029004801561169b5780601f106116705761010080835404028352916020019161169b565b820191906000526020600020905b81548152906001019060200180831161167e57829003601f168201915b50505050509050919050565b6116af611ee5565b15156116ba57600080fd5b600073ffffffffffffffffffffffffffffffffffffffff166000809054906101000a900473ffffffffffffffffffffffffffffffffffffffff1673ffffffffffffffffffffffffffffffffffffffff167f5c486528ec3e3f0ea91181cff8116f02bfa350e03b8b6f12e00765adbb5af85c60405160405180910390a360008060006101000a81548173ffffffffffffffffffffffffffffffffffffffff021916908373ffffffffffffffffffffffffffffffffffffffff160217905550565b61178233611ec8565b151561181c576040517f08c379a00000000000000000000000000000000000000000000000000000000081526004018080602001828103825260288152602001807f4f6e6c79206469737472696275746f72732063616e2063616c6c20746869732081526020017f66756e6374696f6e00000000000000000000000000000000000000000000000081525060400191505060405180910390fd5b61182581612fe9565b50565b600080600080606080606080600760008a8152602001908152602001600020600001549750889650600760008a815260200190815260200160002060020160009054906101000a900473ffffffffffffffffffffffffffffffffffffffff169550600760008a815260200190815260200160002060030160009054906101000a900473ffffffffffffffffffffffffffffffffffffffff169450600760008a81526020019081526020016000206004018054600181600116156101000203166002900480601f01602080910402602001604051908101604052809291908181526020018280546001816001161561010002031660029004801561196c5780601f106119415761010080835404028352916020019161196c565b820191906000526020600020905b81548152906001019060200180831161194f57829003601f168201915b50505050509350600760008a81526020019081526020016000206005018054600181600116156101000203166002900480601f016020809104026020016040519081016040528092919081815260200182805460018160011615610100020316600290048015611a1d5780601f106119f257610100808354040283529160200191611a1d565b820191906000526020600020905b815481529060010190602001808311611a0057829003601f168201915b50505050509250600760008a81526020019081526020016000206006018054600181600116156101000203166002900480601f016020809104026020016040519081016040528092919081815260200182805460018160011615610100020316600290048015611ace5780601f10611aa357610100808354040283529160200191611ace565b820191906000526020600020905b815481529060010190602001808311611ab157829003601f168201915b50505050509150600760008a81526020019081526020016000206007018054600181600116156101000203166002900480601f016020809104026020016040519081016040528092919081815260200182805460018160011615610100020316600290048015611b7f5780601f10611b5457610100808354040283529160200191611b7f565b820191906000526020600020905b815481529060010190602001808311611b6257829003601f168201915b50505050509050878787878787878797509750975097509750975097509750919395975091939597565b6060806007600084815260200190815260200160002060060160076000858152602001908152602001600020600701818054600181600116156101000203166002900480601f016020809104026020016040519081016040528092919081815260200182805460018160011615610100020316600290048015611c6d5780601f10611c4257610100808354040283529160200191611c6d565b820191906000526020600020905b815481529060010190602001808311611c5057829003601f168201915b50505050509150808054600181600116156101000203166002900480601f016020809104026020016040519081016040528092919081815260200182805460018160011615610100020316600290048015611d095780601f10611cde57610100808354040283529160200191611d09565b820191906000526020600020905b815481529060010190602001808311611cec57829003601f168201915b5050505050905091509150915091565b611d2233612145565b1515611dbc576040517f08c379a00000000000000000000000000000000000000000000000000000000081526004018080602001828103825260238152602001807f4f6e6c79206661726d6572732063616e2063616c6c20746869732066756e637481526020017f696f6e000000000000000000000000000000000000000000000000000000000081525060400191505060405180910390fd5b611dc581613043565b50565b611dd13361309d565b565b6000611de9826004612ea190919063ffffffff16565b9050919050565b60008060009054906101000a900473ffffffffffffffffffffffffffffffffffffffff16905090565b611e22336113aa565b1515611ebc576040517f08c379a00000000000000000000000000000000000000000000000000000000081526004018080602001828103825260258152602001807f4f6e6c792072657461696c6572732063616e2063616c6c20746869732066756e81526020017f6374696f6e00000000000000000000000000000000000000000000000000000081525060400191505060405180910390fd5b611ec5816130f7565b50565b6000611ede826002612ea190919063ffffffff16565b9050919050565b60008060009054906101000a900473ffffffffffffffffffffffffffffffffffffffff1673ffffffffffffffffffffffffffffffffffffffff163373ffffffffffffffffffffffffffffffffffffffff1614905090565b8060056007811115611f4a57fe5b60076000838152602001908152602001600020600b0160009054906101000a900460ff166007811115611f7957fe5b141515611f8557600080fd5b611f8e336113aa565b1515612028576040517f08c379a00000000000000000000000000000000000000000000000000000000081526004018080602001828103825260258152602001807f4f6e6c792072657461696c6572732063616e2063616c6c20746869732066756e81526020017f6374696f6e00000000000000000000000000000000000000000000000000000081525060400191505060405180910390fd5b336007600084815260200190815260200160002060020160006101000a81548173ffffffffffffffffffffffffffffffffffffffff021916908373ffffffffffffffffffffffffffffffffffffffff1602179055503360076000848152602001908152602001600020600c0160006101000a81548173ffffffffffffffffffffffffffffffffffffffff021916908373ffffffffffffffffffffffffffffffffffffffff160217905550600660076000848152602001908152602001600020600b0160006101000a81548160ff0219169083600781111561210557fe5b02179055507fa8142743f8f70a4c26f3691cf4ed59718381fb2f18070ec52be1f1022d855557826040518082815260200191505060405180910390a15050565b600061215b826001612ea190919063ffffffff16565b9050919050565b61216b33612145565b1515612205576040517f08c379a00000000000000000000000000000000000000000000000000000000081526004018080602001828103825260238152602001807f4f6e6c79206661726d6572732063616e2063616c6c20746869732066756e637481526020017f696f6e000000000000000000000000000000000000000000000000000000000081525060400191505060405180910390fd5b6101e06040519081016040528060065481526020018881526020018773ffffffffffffffffffffffffffffffffffffffff1681526020018773ffffffffffffffffffffffffffffffffffffffff16815260200186815260200185815260200184815260200183815260200188600654018152602001828152602001600081526020016000600781111561229457fe5b8152602001600073ffffffffffffffffffffffffffffffffffffffff168152602001600073ffffffffffffffffffffffffffffffffffffffff168152602001600073ffffffffffffffffffffffffffffffffffffffff1681525060076000898152602001908152602001600020600082015181600001556020820151816001015560408201518160020160006101000a81548173ffffffffffffffffffffffffffffffffffffffff021916908373ffffffffffffffffffffffffffffffffffffffff16021790555060608201518160030160006101000a81548173ffffffffffffffffffffffffffffffffffffffff021916908373ffffffffffffffffffffffffffffffffffffffff16021790555060808201518160040190805190602001906123bf929190613404565b5060a08201518160050190805190602001906123dc929190613404565b5060c08201518160060190805190602001906123f9929190613404565b5060e0820151816007019080519060200190612416929190613404565b50610100820151816008015561012082015181600901908051906020019061243f929190613404565b5061014082015181600a015561016082015181600b0160006101000a81548160ff0219169083600781111561247057fe5b021790555061018082015181600b0160016101000a81548173ffffffffffffffffffffffffffffffffffffffff021916908373ffffffffffffffffffffffffffffffffffffffff1602179055506101a082015181600c0160006101000a81548173ffffffffffffffffffffffffffffffffffffffff021916908373ffffffffffffffffffffffffffffffffffffffff1602179055506101c082015181600d0160006101000a81548173ffffffffffffffffffffffffffffffffffffffff021916908373ffffffffffffffffffffffffffffffffffffffff1602179055509050506001600654016006819055507f8e55ccfc9778ff8eba1646d765cf1982537ce0f9257054a17b48aad745250183876040518082815260200191505060405180910390a150505050505050565b80600660078111156125aa57fe5b60076000838152602001908152602001600020600b0160009054906101000a900460ff1660078111156125d957fe5b1415156125e557600080fd5b6125ee33611dd3565b1515612688576040517f08c379a00000000000000000000000000000000000000000000000000000000081526004018080602001828103825260258152602001807f4f6e6c7920636f6e73756d6572732063616e2063616c6c20746869732066756e81526020017f6374696f6e00000000000000000000000000000000000000000000000000000081525060400191505060405180910390fd5b336007600084815260200190815260200160002060020160006101000a81548173ffffffffffffffffffffffffffffffffffffffff021916908373ffffffffffffffffffffffffffffffffffffffff1602179055503360076000848152602001908152602001600020600d0160006101000a81548173ffffffffffffffffffffffffffffffffffffffff021916908373ffffffffffffffffffffffffffffffffffffffff1602179055506007806000848152602001908152602001600020600b0160006101000a81548160ff0219169083600781111561276457fe5b02179055507f653d56639fee6b566a5c804764e9689de38645f0b733df89a36a1b7b42173dd8826040518082815260200191505060405180910390a15050565b6060600760008381526020019081526020016000206009018054600181600116156101000203166002900480601f0160208091040260200160405190810160405280929190818152602001828054600181600116156101000203166002900480156128505780601f1061282557610100808354040283529160200191612850565b820191906000526020600020905b81548152906001019060200180831161283357829003601f168201915b50505050509050919050565b61286533613151565b565b61287033611ec8565b151561290a576040517f08c379a00000000000000000000000000000000000000000000000000000000081526004018080602001828103825260288152602001807f4f6e6c79206469737472696275746f72732063616e2063616c6c20746869732081526020017f66756e6374696f6e00000000000000000000000000000000000000000000000081525060400191505060405180910390fd5b806003600781111561291857fe5b60076000838152602001908152602001600020600b0160009054906101000a900460ff16600781111561294757fe5b14151561295357600080fd5b60076000838152602001908152602001600020600a015480341015151561297957600080fd5b82600080336007600088815260200190815260200160002060020160006101000a81548173ffffffffffffffffffffffffffffffffffffffff021916908373ffffffffffffffffffffffffffffffffffffffff1602179055503360076000888152602001908152602001600020600b0160016101000a81548173ffffffffffffffffffffffffffffffffffffffff021916908373ffffffffffffffffffffffffffffffffffffffff160217905550600460076000888152602001908152602001600020600b0160006101000a81548160ff02191690836007811115612a5a57fe5b02179055506007600087815260200190815260200160002060030160009054906101000a900473ffffffffffffffffffffffffffffffffffffffff1673ffffffffffffffffffffffffffffffffffffffff166108fc60076000898152602001908152602001600020600a01549081150290604051600060405180830381858888f19350505050158015612af1573d6000803e3d6000fd5b507f92f64ca637d023f354075a4be751b169c1a8a9ccb6d33cdd0cb3520543995727866040518082815260200191505060405180910390a160076000848152602001908152602001600020600a01549150813403905060076000848152602001908152602001600020600d0160009054906101000a900473ffffffffffffffffffffffffffffffffffffffff1673ffffffffffffffffffffffffffffffffffffffff166108fc829081150290604051600060405180830381858888f19350505050158015612bc3573d6000803e3d6000fd5b50505050505050565b612bd4611ee5565b1515612bdf57600080fd5b612be8816131ab565b50565b8060016007811115612bf957fe5b60076000838152602001908152602001600020600b0160009054906101000a900460ff166007811115612c2857fe5b141515612c3457600080fd5b6007600083815260200190815260200160002060030160009054906101000a900473ffffffffffffffffffffffffffffffffffffffff168073ffffffffffffffffffffffffffffffffffffffff163373ffffffffffffffffffffffffffffffffffffffff16141515612ca557600080fd5b600260076000858152602001908152602001600020600b0160006101000a81548160ff02191690836007811115612cd857fe5b02179055507f9b3b66e2380b690bae22c73ef1428fb0c91e72fe14a4b6defa13035214187aff836040518082815260200191505060405180910390a1505050565b8060046007811115612d2757fe5b60076000838152602001908152602001600020600b0160009054906101000a900460ff166007811115612d5657fe5b141515612d6257600080fd5b6007600083815260200190815260200160002060020160009054906101000a900473ffffffffffffffffffffffffffffffffffffffff168073ffffffffffffffffffffffffffffffffffffffff163373ffffffffffffffffffffffffffffffffffffffff16141515612dd357600080fd5b600560076000858152602001908152602001600020600b0160006101000a81548160ff02191690836007811115612e0657fe5b02179055507ff00b9a5725b80c54016f42114f6ed7792d22eecb116011c4afac29c57bef6c95836040518082815260200191505060405180910390a1505050565b612e5b8160046132a590919063ffffffff16565b8073ffffffffffffffffffffffffffffffffffffffff167f28b26e7a3d20aedbc5f8f2ebf7da671c0491723a2b78f47a097b0e46dee0714260405160405180910390a250565b60008073ffffffffffffffffffffffffffffffffffffffff168273ffffffffffffffffffffffffffffffffffffffff1614151515612ede57600080fd5b8260000160008373ffffffffffffffffffffffffffffffffffffffff1673ffffffffffffffffffffffffffffffffffffffff16815260200190815260200160002060009054906101000a900460ff16905092915050565b612f4981600461335590919063ffffffff16565b8073ffffffffffffffffffffffffffffffffffffffff167fe3f5ed5f263f1f01764a96edfc7d025f511ec5f7d180e8816908b78bcf74f09860405160405180910390a250565b612fa381600261335590919063ffffffff16565b8073ffffffffffffffffffffffffffffffffffffffff167f126174f6cf49c81cdb4a9214c6b8f037bef55b4ec31e4fc776cea2a1c8a88d5960405160405180910390a250565b612ffd8160026132a590919063ffffffff16565b8073ffffffffffffffffffffffffffffffffffffffff167fddbf200aa634dc3fb81cfd68583dd1040d1c751d335e1d86b631bde3e977fea860405160405180910390a250565b6130578160016132a590919063ffffffff16565b8073ffffffffffffffffffffffffffffffffffffffff167f2e0ded4123377a3c2bc9a26f1717655a129e2f20752924d42e730ec89c83dbd060405160405180910390a250565b6130b181600161335590919063ffffffff16565b8073ffffffffffffffffffffffffffffffffffffffff167fa5e0f060af304ab17dd418c7927e3da3ae7868189bf387aee09ab179ccc572f260405160405180910390a250565b61310b8160036132a590919063ffffffff16565b8073ffffffffffffffffffffffffffffffffffffffff167f71ae26cad02663e3d92efd6ec56031a80d74a20c0ab4183faa8bf262261c9baa60405160405180910390a250565b61316581600361335590919063ffffffff16565b8073ffffffffffffffffffffffffffffffffffffffff167fdb7176e79cffef81cb01767dd0447a0b24bb72ca9778d4b245581086b2a7e6db60405160405180910390a250565b600073ffffffffffffffffffffffffffffffffffffffff168173ffffffffffffffffffffffffffffffffffffffff16141515156131e757600080fd5b8073ffffffffffffffffffffffffffffffffffffffff166000809054906101000a900473ffffffffffffffffffffffffffffffffffffffff1673ffffffffffffffffffffffffffffffffffffffff167f5c486528ec3e3f0ea91181cff8116f02bfa350e03b8b6f12e00765adbb5af85c60405160405180910390a3806000806101000a81548173ffffffffffffffffffffffffffffffffffffffff021916908373ffffffffffffffffffffffffffffffffffffffff16021790555050565b600073ffffffffffffffffffffffffffffffffffffffff168173ffffffffffffffffffffffffffffffffffffffff16141515156132e157600080fd5b6132eb8282612ea1565b1515156132f757600080fd5b60018260000160008373ffffffffffffffffffffffffffffffffffffffff1673ffffffffffffffffffffffffffffffffffffffff16815260200190815260200160002060006101000a81548160ff0219169083151502179055505050565b600073ffffffffffffffffffffffffffffffffffffffff168173ffffffffffffffffffffffffffffffffffffffff161415151561339157600080fd5b61339b8282612ea1565b15156133a657600080fd5b60008260000160008373ffffffffffffffffffffffffffffffffffffffff1673ffffffffffffffffffffffffffffffffffffffff16815260200190815260200160002060006101000a81548160ff0219169083151502179055505050565b828054600181600116156101000203166002900490600052602060002090601f016020900481019282601f1061344557805160ff1916838001178555613473565b82800160010185558215613473579182015b82811115613472578251825591602001919060010190613457565b5b5090506134809190613484565b5090565b6134a691905b808211156134a257600081600090555060010161348a565b5090565b905600a165627a7a72305820b980944b7fd937bf711de89814038c4c6698a24b56cd8cd9c84b7f0dbf5008350029",
  "source": "pragma solidity ^0.4.24;\n\nimport \"../coffeecore/Ownable.sol\";\nimport \"../coffeeaccesscontrol/FarmerRole.sol\";\nimport \"../coffeeaccesscontrol/DistributorRole.sol\";\nimport \"../coffeeaccesscontrol/RetailerRole.sol\";\nimport \"../coffeeaccesscontrol/ConsumerRole.sol\";\n\n// Define a contract 'Supplychain'\ncontract SupplyChain is Ownable, FarmerRole, DistributorRole, RetailerRole, ConsumerRole {\n\n  // Define a variable called 'upc' for Universal Product Code (UPC)\n  uint  upc;\n\n  // Define a variable called 'sku' for Stock Keeping Unit (SKU)\n  uint  sku;\n\n  // Define a public mapping 'items' that maps the UPC to an Item.\n  mapping (uint => Item) items;\n\n  // Define a public mapping 'itemsHistory' that maps the UPC to an array of TxHash,\n  // that track its journey through the supply chain -- to be sent from DApp.\n  mapping (uint => string[]) itemsHistory;\n\n  // Define enum 'State' with the following values:\n  enum State\n  {\n    Harvested,  // 0\n    Processed,  // 1\n    Packed,     // 2\n    ForSale,    // 3\n    Sold,       // 4\n    Shipped,    // 5\n    Received,   // 6\n    Purchased   // 7\n  }\n\n  State constant defaultState = State.Harvested;\n\n  // Define a struct 'Item' with the following fields:\n  struct Item {\n    uint    sku;  // Stock Keeping Unit (SKU)\n    uint    upc; // Universal Product Code (UPC), generated by the Farmer, goes on the package, can be verified by the Consumer\n    address ownerID;  // Metamask-Ethereum address of the current owner as the product moves through 8 stages\n    address originFarmerID; // Metamask-Ethereum address of the Farmer\n    string  originFarmName; // Farmer Name\n    string  originFarmInformation;  // Farmer Information\n    string  originFarmLatitude; // Farm Latitude\n    string  originFarmLongitude;  // Farm Longitude\n    uint    productID;  // Product ID potentially a combination of upc + sku\n    string  productNotes; // Product Notes\n    uint    productPrice; // Product Price\n    State   itemState;  // Product State as represented in the enum above\n    address distributorID;  // Metamask-Ethereum address of the Distributor\n    address retailerID; // Metamask-Ethereum address of the Retailer\n    address consumerID; // Metamask-Ethereum address of the Consumer\n  }\n\n  // Define 8 events with the same 8 state values and accept 'upc' as input argument\n  event Harvested(uint upc);\n  event Processed(uint upc);\n  event Packed(uint upc);\n  event ForSale(uint upc);\n  event Sold(uint upc);\n  event Shipped(uint upc);\n  event Received(uint upc);\n  event Purchased(uint upc);\n\n  // Define a modifer that verifies the Caller\n  modifier verifyCaller (address _address) {\n    require(msg.sender == _address);\n    _;\n  }\n\n  // Define a modifier that checks if the paid amount is sufficient to cover the price\n  modifier paidEnough(uint _price) {\n    require(msg.value >= _price);\n    _;\n  }\n\n  // Define a modifier that checks the price and refunds the remaining balance\n  modifier checkValue(uint _upc) {\n    _;\n    uint _price = items[_upc].productPrice;\n    uint amountToReturn = msg.value - _price;\n    items[_upc].consumerID.transfer(amountToReturn);\n  }\n\n  // Define a modifier that checks if an item.state of a upc is Harvested\n  modifier harvested(uint _upc) {\n    require(items[_upc].itemState == State.Harvested);\n    _;\n  }\n\n  // Define a modifier that checks if an item.state of a upc is Processed\n  modifier processed(uint _upc) {\n    require(items[_upc].itemState == State.Processed);\n    _;\n  }\n\n  // Define a modifier that checks if an item.state of a upc is Packed\n  modifier packed(uint _upc) {\n    require(items[_upc].itemState == State.Packed);\n    _;\n  }\n\n  // Define a modifier that checks if an item.state of a upc is ForSale\n  modifier forSale(uint _upc) {\n    require(items[_upc].itemState == State.ForSale);\n    _;\n  }\n\n  // Define a modifier that checks if an item.state of a upc is Sold\n  modifier sold(uint _upc) {\n    require(items[_upc].itemState == State.Sold);\n    _;\n  }\n\n  // Define a modifier that checks if an item.state of a upc is Shipped\n  modifier shipped(uint _upc) {\n    require(items[_upc].itemState == State.Shipped);\n    _;\n  }\n\n  // Define a modifier that checks if an item.state of a upc is Received\n  modifier received(uint _upc) {\n    require(items[_upc].itemState == State.Received);\n    _;\n  }\n\n  // Define a modifier that checks if an item.state of a upc is Purchased\n  modifier purchased(uint _upc) {\n    require(items[_upc].itemState == State.Purchased);\n    _;\n  }\n\n  // In the constructor set 'owner' to the address that instantiated the contract\n  // and set 'sku' to 1\n  // and set 'upc' to 1\n  constructor() public payable {\n    sku = 1;\n    upc = 1;\n  }\n\n  // Define a function 'kill' if required\n  function kill() public {\n    if (msg.sender == owner()) {\n      selfdestruct(owner());\n    }\n  }\n\n  // Define a function 'harvestItem' that allows a farmer to mark an item 'Harvested'\n  function harvestItem(uint _upc, address _originFarmerID, string _originFarmName,\n    string _originFarmInformation, string  _originFarmLatitude, string  _originFarmLongitude,\n    string  _productNotes) public onlyFarmer()\n  {\n    // Add the new item as part of Harvest\n    items[_upc] = Item({\n      sku: sku,\n      upc: _upc,\n      ownerID: _originFarmerID,\n      originFarmerID: _originFarmerID,\n      originFarmName: _originFarmName,\n      originFarmInformation: _originFarmInformation,\n      originFarmLatitude: _originFarmLatitude,\n      originFarmLongitude: _originFarmLongitude,\n      productID: sku + _upc,\n      productNotes: _productNotes,\n      itemState: State.Harvested,\n      productPrice: 0,\n      distributorID: 0x0,\n      retailerID: 0x0,\n      consumerID: 0x0\n    });\n\n    // Increment sku\n    sku = sku + 1;\n    // Emit the appropriate event\n    emit Harvested(_upc);\n  }\n\n  // Define a function 'processtItem' that allows a farmer to mark an item 'Processed'\n  function processItem(uint _upc) public\n    // Call modifier to check if upc has passed previous supply chain stage\n  harvested(_upc)\n    // Call modifier to verify caller of this function\n  verifyCaller(items[_upc].originFarmerID)\n  {\n    // Update the appropriate fields\n    items[_upc].itemState = State.Processed;\n\n    // Emit the appropriate event\n    emit Processed(_upc);\n  }\n\n  // Define a function 'packItem' that allows a farmer to mark an item 'Packed'\n  function packItem(uint _upc) public\n    // Call modifier to check if upc has passed previous supply chain stage\n  processed(_upc)\n    // Call modifier to verify caller of this function\n  verifyCaller(items[_upc].originFarmerID)\n  {\n    // Update the appropriate fields\n    items[_upc].itemState = State.Packed;\n\n    // Emit the appropriate event\n    emit Packed(_upc);\n  }\n\n  // Define a function 'sellItem' that allows a farmer to mark an item 'ForSale'\n  function sellItem(uint _upc, uint _price) public\n    // Call modifier to check if upc has passed previous supply chain stage\n  packed(_upc)\n    // Call modifier to verify caller of this function\n  verifyCaller(items[_upc].originFarmerID)\n  {\n    // Update the appropriate fields\n    items[_upc].itemState = State.ForSale;\n    items[_upc].productPrice = _price;\n\n    // Emit the appropriate event\n    emit ForSale(_upc);\n  }\n\n  // Define a function 'buyItem' that allows the disributor to mark an item 'Sold'\n  // Use the above defined modifiers to check if the item is available for sale, if the buyer has paid enough,\n  // and any excess ether sent is refunded back to the buyer\n  function buyItem(uint _upc) public payable\n    // Access control check\n  onlyDistributor()\n    // Call modifier to check if upc has passed previous supply chain stage\n  forSale(_upc)\n    // Call modifer to check if buyer has paid enough\n  paidEnough(items[_upc].productPrice)\n    // Call modifer to send any excess ether back to buyer\n  checkValue(_upc)\n  {\n\n    // Update the appropriate fields - ownerID, distributorID, itemState\n    items[_upc].ownerID = msg.sender;\n    items[_upc].distributorID = msg.sender;\n    items[_upc].itemState = State.Sold;\n\n    // Transfer money to farmer\n    items[_upc].originFarmerID.transfer(items[_upc].productPrice);\n\n    // emit the appropriate event\n    emit Sold(_upc);\n  }\n\n  // Define a function 'shipItem' that allows the distributor to mark an item 'Shipped'\n  // Use the above modifers to check if the item is sold\n  function shipItem(uint _upc) public\n    // Call modifier to check if upc has passed previous supply chain stage\n  sold(_upc)\n    // Call modifier to verify caller of this function\n  verifyCaller(items[_upc].ownerID)\n  {\n    // Update the appropriate fields\n    items[_upc].itemState = State.Shipped;\n\n    // Emit the appropriate event\n    emit Shipped(_upc);\n  }\n\n  // Define a function 'receiveItem' that allows the retailer to mark an item 'Received'\n  // Use the above modifiers to check if the item is shipped\n  function receiveItem(uint _upc) public\n    // Call modifier to check if upc has passed previous supply chain stage\n  shipped(_upc)\n    // Access Control List enforced by calling Smart Contract / DApp\n  onlyRetailer()\n  {\n    // Update the appropriate fields - ownerID, retailerID, itemState\n    items[_upc].ownerID = msg.sender;\n    items[_upc].retailerID = msg.sender;\n    items[_upc].itemState = State.Received;\n\n    // Emit the appropriate event\n    emit Received(_upc);\n  }\n\n  // Define a function 'purchaseItem' that allows the consumer to mark an item 'Purchased'\n  // Use the above modifiers to check if the item is received\n  function purchaseItem(uint _upc) public\n    // Call modifier to check if upc has passed previous supply chain stage\n  received(_upc)\n    // Access Control List enforced by calling Smart Contract / DApp\n  onlyConsumer()\n  {\n    // Update the appropriate fields - ownerID, consumerID, itemState\n    items[_upc].ownerID = msg.sender;\n    items[_upc].consumerID = msg.sender;\n    items[_upc].itemState = State.Purchased;\n\n    // Emit the appropriate event\n    emit Purchased(_upc);\n  }\n\n  // Define a function 'fetchItemBufferOne' that fetches the data\n  function fetchItemBufferOne(uint _upc) public view returns\n  (\n    uint    itemSKU,\n    uint    itemUPC,\n    address ownerID,\n    address originFarmerID,\n    string  originFarmName,\n    string  originFarmInformation,\n    string  originFarmLatitude,\n    string  originFarmLongitude\n  )\n  {\n    // Assign values to the 8 parameters\n    itemSKU = items[_upc].sku;\n    itemUPC = _upc;\n    ownerID = items[_upc].ownerID;\n    originFarmerID = items[_upc].originFarmerID;\n    originFarmName = items[_upc].originFarmName;\n    originFarmInformation = items[_upc].originFarmInformation;\n    originFarmLatitude = items[_upc].originFarmLatitude;\n    originFarmLongitude = items[_upc].originFarmLongitude;\n\n    return\n    (\n      itemSKU,\n      itemUPC,\n      ownerID,\n      originFarmerID,\n      originFarmName,\n      originFarmInformation,\n      originFarmLatitude,\n      originFarmLongitude\n    );\n  }\n\n  // Define a function 'fetchItemBufferTwo' that fetches the data\n  function fetchItemBufferTwo(uint _upc) public view returns\n  (\n    uint    itemSKU,\n    uint    itemUPC,\n    uint    productID,\n    string  productNotes,\n    uint    productPrice,\n    uint    itemState,\n    address distributorID,\n    address retailerID,\n    address consumerID\n  )\n  {\n    // Assign values to the 9 parameters\n    itemSKU = items[_upc].sku;\n    itemUPC = _upc;\n    productID = items[_upc].productID;\n    productNotes = items[_upc].productNotes;\n    productPrice = items[_upc].productPrice;\n    itemState = uint(items[_upc].itemState);\n    distributorID = items[_upc].distributorID;\n    retailerID = items[_upc].retailerID;\n    consumerID = items[_upc].consumerID;\n\n    return\n    (\n      itemSKU,\n      itemUPC,\n      productID,\n      productNotes,\n      productPrice,\n      itemState,\n      distributorID,\n      retailerID,\n      consumerID\n    );\n  }\n\n  function fetchProductID(uint _upc) public view returns (uint) {\n    return items[_upc].productID;\n  }\n\n  function fetchFarm(uint _upc) public view returns (string) {\n    return items[_upc].originFarmName;\n  }\n\n  function fetchFarmInfo(uint _upc) public view returns (string) {\n    return items[_upc].originFarmInformation;\n  }\n\n  function fetchFarmCoordinates(uint _upc) public view returns (string, string) {\n    return (items[_upc].originFarmLatitude, items[_upc].originFarmLongitude);\n  }\n\n  function fetchProductNotes(uint _upc) public view returns (string) {\n    return items[_upc].productNotes;\n  }\n}",
  "sourcePath": "/home/gcastro/dev/personal/github/udacity-blockchain-architecture/project-6/contracts/coffeebase/SupplyChain.sol",
  "compiler": {
    "name": "solc",
    "version": "0.4.24+commit.e67f0147.Emscripten.clang"
  },
  "schemaVersion": "3.4.14",
  "updatedAt": "2023-07-22T05:58:10.131Z",
  "networkType": "ethereum",
  "devdoc": {
    "methods": {}
  },
  "userdoc": {
    "methods": {
      "isOwner()": {
        "notice": "Check if the calling address is the owner of the contract"
      },
      "owner()": {
        "notice": "Look up the address of the owner"
      },
      "renounceOwnership()": {
        "notice": "Define a function to renounce ownerhip"
      },
      "transferOwnership(address)": {
        "notice": "Define a public function to transfer ownership"
      }
    }
  }
}